:1000000075C08EC08DC08CC08BC08AC089C088C0AE
:1000100087C087C085C084C083C082C081C080C0C3
:100020007FC000002100420063008400A500C600DC
:10003000E700080029004A006B008C00AD00CE00EC
:10004000EF00000010002000300040005000600071
:10005000700081009100A100B100C100D100E10059
:10006000F100CEED6666CC0D000B03730083000C2F
:10007000000D0008111F8889000EDCCC6EE6DDDD66
:10008000D999BBBB67636E0EECCCDDDC999FBBB925
:10009000333E5555AA2AAA555555F00555AA02AA28
:1000A000550555F05555AA2AAA555555900555AAF6
:1000B00002AA550555905555AA2AAA555555805559
:1000C00055AA2AAA555555100555AA02AA550555EF
:1000D000800555AA02AA550555105555AA2AAA55B4
:1000E0005555A00555AA02AA550555A011241FBEB5
:1000F000CFE5D2E0DEBFCDBF10E0A0E6B0E0EEE19C
:10010000FEE002C005900D92A036B107D9F710E0CD
:10011000A0E6B0E001C01D92A33FB107E1F719C608
:1001200033C01F920F920FB60F9211248F93EF934B
:10013000FF938091F000882389F4809161008834D6
:1001400068F480916100E82FFF27ED55FF4F8CB1D7
:100150008083809161008F5F809361008091F000C7
:10016000882351F08091F100882331F48CB1809381
:10017000620081E08093F100FF91EF918F910F90E9
:100180000FBE0F901F90189518955D9BFECF8CB9F0
:10019000089582E088BF12BE83BF089513BE12BEC9
:1001A00082E088BF089580E488BF1DBC1CBC8DE040
:1001B0008EBD08951EBC1DBC1CBC80E488BF089584
:1001C00085BB9FEF94BB82E08A95F1F7939882E01C
:1001D0008A95F1F7939A82E08A95F1F714BA95BB64
:1001E000089514BA8FEF85BB82E08A95F1F7949851
:1001F00082E08A95F1F793B3949A82E08A95F1F7B9
:10020000892F9927089585BB9FEF94BB82E08A953B
:10021000F1F7979882E08A95F1F7979A82E08A95AC
:10022000F1F714BA95BB0895929888E99AE301977B
:10023000F1F796988CED95E00197F1F7969A8CED91
:1002400095E00197F1F7089518BA1BBA929A0895AC
:1002500018BA1BBA8AE0B4DF84E08A95F1F70895F2
:1002600018BA1BBA80E0ACDF0895982F8091EB009C
:10027000823028F418BA80E68BBB892FA1DF08955D
:10028000CF93982FC62F18BA8091EB00853011F0CC
:10029000882339F480E38BBB892F92DF82E08A9533
:1002A000F1F780E28BBB8C2F8BDF8091EB008230EB
:1002B00050F482E08A95F1F780E48BBB8C2F829515
:1002C000869587707DDFCF91089518BA90E49BBB27
:1002D00077DF089588BB892F9927803418F08FEF36
:1002E00090E00895662309F4411180648BBB79DFA7
:1002F0009927089588BB892F9927803218F08FEFAE
:1003000090E00895806A8BBB82E08A95F1F795981A
:1003100068DF959A99270895282F68BB872F99271A
:10032000803248F4806A8BBB82E08A95F1F7959819
:10033000822F46DF959A0895CF93282FC62F80915C
:10034000ED00992782309105D1F0833091051CF49E
:10035000019721F049C00397A1F146C0222369F01B
:10036000C0E029E088E99AE30197F1F7215027FFDF
:10037000F9CFCF5FC333A8F349C08EE645C0C0783C
:10038000222369F084E08A95F1F72BDF99278078A2
:1003900090702C2F332782179307A1F737C0F9DE0F
:1003A00084E08A95F1F71DDF9927807890702C2FD3
:1003B00033278217930719F008B601FEF1CFEEDE5E
:1003C00025C084E08A95F1F70CDFC82FC07484E063
:1003D0008A95F1F706DF9927807490702C2F3327C8
:1003E0008217930771F712C0222369F0C0E029E059
:1003F00088E99AE30197F1F7215027FFF9CFCF5F02
:10040000C536A8F303C08CED8A95F1F7CF91089516
:100410008F929F92AF92BF92CF92DF92EF92FF9214
:100420000F931F93CF93DF93882ECB01A42EB22E70
:10043000962E892F9927C82E442311F4222311F0D8
:1004400080E4C82A61E080E01BDFC0E0D0E066E025
:10045000D62E9091EC0089E0989F900111242C0FEA
:100460003D1FC90186529F4FFC0184918BBBC9017E
:1004700085529F4FFC01849188BB24523F4FF90164
:100480008491C1DEFDEFDF0E2396D7FEE2CF6B2D08
:100490008A2DF6DECBBA98BA882DB5DEC5EED0E04F
:1004A0007E010894E108F1088E010250104056E0E8
:1004B000D52EF80184918BBBF701849188BBFE0196
:1004C00084917EDEFDEFDF0E0D5F1F4F83E090E035
:1004D000E80EF91EC80FD91FD7FEEBCFCBBA98BADA
:1004E000882D6EDE80E0C1DE6B2D8A2DC9DECBBA91
:1004F00098BA682D80E020DFDF91CF911F910F9196
:10050000FF90EF90DF90CF90BF90AF909F908F9033
:100510000895BF92CF92DF92EF92FF920F931F93B5
:10052000CF93DF9361E080E0ABDECAECD0E07E01E8
:100530000894E108F1088E0102501040CC24DD241B
:10054000EFE0BE2E9091EC0082E1989F9001112483
:100550002C0D3D1DC9018A549F4FFC0184918BBB1A
:10056000C90189549F4FFC01849188BB28543F4F97
:10057000F901849148DEF80184918BBBF7018491E5
:1005800088BBFE0184911CDEFDEFBF0E83E090E08E
:10059000C80ED91E080F191FE80EF91EC80FD91F63
:1005A000B7FED0CF6FEF81E0C7DEDF91CF911F9113
:1005B0000F91FF90EF90DF90CF90BF900895BF9282
:1005C000CF92DF92EF92FF920F931F93CF93DF931F
:1005D00061E080E055DECFEAD0E07E010894E108DA
:1005E000F1088E0102501040CC24DD24F6E0BF2E2D
:1005F0009091EC0089E0989F900111242C0D3D1DF5
:10060000C9018C559F4FFC0184918BBBC9018B554F
:100610009F4FFC01849188BB2A553F4FF90184917B
:10062000F2DDF80184918BBBF701849188BBFE0158
:100630008491C6DDFDEFBF0E83E090E0C80ED91EA9
:10064000080F191FE80EF91EC80FD91FB7FED0CF2B
:10065000DF91CF911F910F91FF90EF90DF90CF909E
:10066000BF900895BF92CF92DF92EF92FF920F93C7
:100670001F93CF93DF93CDE9D0E07E010894E1088A
:10068000F1088E0102501040CC24DD24A6E0BA2EE1
:100690009091EC0089E0989F900111242C0D3D1D54
:1006A000C9018E569F4FFC0184918BBBC9018D56A9
:1006B0009F4FFC01849188BB2C563F4FF9018491D8
:1006C000A2DDF80184918BBBF701849188BBFE0108
:1006D000849176DDFDEFBF0E83E090E0C80ED91E59
:1006E000080F191FE80EF91EC80FD91FB7FED0CF8B
:1006F000B7DDDF91CF911F910F91FF90EF90DF90C9
:10070000CF90BF900895E4EAF0E086E41192815022
:1007100087FFFCCF85E58093A30008959091F200B8
:10072000392F32953F703827892F9927B4E0880FE9
:10073000991FBA95E1F740916000242F22952F7000
:10074000282B632F7727660F771FCB018E5B9F4F78
:10075000FC01849128272093F200842F8295807FCA
:10076000809360006E5D7F4FFB0194918927809399
:10077000600008951F93CF93DF931092F2001092C0
:100780006000C3EAD0E015E4888182958F70C6DFEF
:1007900089918F70C3DF115017FFF6CFDF91CF9192
:1007A0001F910895CF93C1E0E5DF9091EA00809119
:1007B0006000981739F49091E9008091F200981741
:1007C00009F4C0E08C2F9927CF910895D3DF809151
:1007D00060008093EA008091F2008093E900089520
:1007E000DF92EF92FF920F931F93CF93082FE62E85
:1007F000D42EF22EC0E01C2FD6DC8091610088340C
:1008000028F408B606FEF9CFD5DC3CC0D3DC8091D5
:10081000A300853519F4C6DF882339F01F5F1A302D
:1008200078F51092610080EF29C08091A40081309A
:1008300021F08091A400823019F58091A6008017E4
:1008400059F48091A7008E15D9F48091A8008D15D8
:10085000B9F480E090E018C0802F8150FF2011F0A3
:10086000982F02C0982F9F778091A600891741F496
:10087000CF5FCA3028F4109261008AEA86DCBCCFD0
:100880008FE083DC81E090E0CF911F910F91FF908A
:10089000EF90DF9008952F923F924F925F926F9268
:1008A0007F928F929F92AF92BF92CF92DF92EF9200
:1008B000FF920F931F93CF93DF93082FB5DC002394
:1008C00019F080E0D2DC03C081E0CFDCC1DC809194
:1008D000EE009927D82ECC248091EF00C80ED11CB1
:1008E0008FEFC8168FEFD80621F49EEFC92E9FEF29
:1008F000D92E002319F08FEF282E02C01FE7212EDA
:100900001092F000109261008AEA3FDC882499245A
:10091000382C892D9927482E002311F4882DD5DCF9
:10092000AA24BB243501202F432D642D8A2D58DFA6
:100930008823E9F5E3EAF0E0A3E6B0E01FE386816F
:100940008D931150319617FFFACF5090A40010925A
:1009500061008AEA1ADCC3E6D0E07E011FE30023CF
:1009600039F0232D442DB301F701808151DD03C0FF
:10097000B3018881D1DC0894611C711C115008946A
:10098000E11CF11C219617FFEACFF2E05F1679F027
:100990000894A11CB11C822D99278A159B0518F675
:1009A0000894811C911CC814D90408F0B1CF58DCFC
:1009B000DF91CF911F910F91FF90EF90DF90CF903B
:1009C000BF90AF909F908F907F906F905F904F906F
:1009D0003F902F900895FF920F931F93CF93FF2482
:1009E000F5DEF092F10003EA10E0C7E4F80181912E
:1009F0008F01CBDBC150C7FFF9CFD5DB8091F10070
:100A0000882329F408B606FEF9CFD4DB11C0D2DB67
:100A10008091620099278F30910551F08A3A9105B3
:100A200019F480E090E00AC0F394F9E0FF1518F49F
:100A300081E090E003C01092F100D5CFCF911F91DB
:100A40000F91FF9008953F924F925F926F927F9225
:100A50008F929F92AF92BF92CF92DF92EF92FF92CE
:100A60000F931F93CF93DF93682EDEDB662019F080
:100A700080E0FBDB03C081E0F8DBEADB8091EE0085
:100A80009927F82EEE248091EF00E80EF11C8FEFED
:100A9000E8168FEFF80621F47EEFE72E7FEFF72EB2
:100AA000662019F06FEF562E02C05FE7552E81E0E9
:100AB0008093F000C0E0D0E03C2E8D2F9927482E87
:100AC000662019F06C2FDCDB02C08C2FFEDBAA2421
:100AD000BB24450118DECE15DF0539F4852D992795
:100AE000A816B90611F482E001C081E08093A40049
:100AF000A092A6004092A7003092A80003EA10E05E
:100B000068013FE3732E662031F0432D642DC4014C
:100B1000E1DBF60103C0C401EDDBF8018683089434
:100B2000811C911C7A940894C11CD11C0F5F1F4F2B
:100B300077FEE9CF50DF882319F0662089F40FC0D3
:100B40000894A11CB11C852D99278A159B0510F6C8
:100B50002196EC16FD0608F0AFCF662009F480DB85
:100B6000DF91CF911F910F91FF90EF90DF90CF9089
:100B7000BF90AF909F908F907F906F905F904F90BD
:100B80003F9008958091A6008093EB008091A7008C
:100B900081708093EC008091A8008093ED0080919B
:100BA000A9008093EE008091AA008093EF008091CD
:100BB000A50099278130910571F0823091051CF4D0
:100BC000892B39F010C08230910541F0039741F034
:100BD0000AC081E001C080E036DF089581E001C0F5
:100BE00080E059DE089580EFD0DA08950F931F93C7
:100BF000CF93DF9319DB8091A6008093EB00809167
:100C0000A5008823E1F081E030DB22DB00E010E08A
:100C10008091A700802F59DBC0E0D0E0BE0180E0CA
:100C20007BDB219680E2C030D807C0F30F5F1F4FF7
:100C30008091A70099278017910760F70AC08091DB
:100C4000A70081708093EC008091A8008093ED0054
:100C500060DC06DB8AEA99DADF91CF911F910F9170
:100C60000895FF920F931F93CF93DF9310E080912D
:100C7000A500882351F011E08091A6008093EB003D
:100C80008091A70081238093EC003DDD112309F4BE
:100C900048C0CADA81E08093AB00C2E6D0E004E04D
:100CA00011E0AFE2FA2E40E0642FC80113DBFE0131
:100CB0009491891711F01092AB00FA940F5F1F4FB7
:100CC0002196F7FEF0CFC4E3D1E00CEA10E0FBE19F
:100CD000FF2E40E0642FCE01FDDAF80181938F01F1
:100CE000FA942196F7FEF5CF84E08A95F1F767DC58
:100CF0008CED8A95F1F740E0642F80E090E0EADA2D
:100D00008093A70040E0642F81E090E0E3DA8093D5
:100D1000A80040E0642F82E090E0DCDA8093A90034
:100D2000A1DC84E08093A40082E08093A50080E1B0
:100D30008093A6004BDDC3EAD0E017E4899125DA61
:100D4000115017FFFBCFDF91CF911F910F91FF90B3
:100D50000895CFE5D2E0DEBFCDBF1BBA8FEF8ABBCF
:100D600018BA87BB14BA85BB82BB8EEF81BB85E006
:100D700087B922E026B9000085B199278570907067
:100D8000019711F429B90AC085B19927857090702F
:100D9000049711F419B802C081E089B916B887E048
:100DA00087B984E48BBD8AEA8ABD80E888B988E97E
:100DB0008AB97894809161008823E1F3F4D908B668
:100DC00006FC29C0809161008834C8F3F3D9809172
:100DD000A3008535C1F4E6DC8823A9F48091A40042
:100DE00099278330910559F0843091051CF4892BA3
:100DF00021F009C0049729F006C0C4DE06C0F6DE63
:100E000004C02FDF02C080EFC0D9109261001092A1
:0E0E1000F0001ADACFCFCED910926100CBCF0E
:00000001FF
